:020000040800F2
:1000000000500020793300080D2F00080F2F000842
:10001000112F0008132F0008152F00080000000002
:10002000000000000000000000000000172F000882
:10003000192F0008000000001B2F00081D2F0008CA
:10004000C1330008C1330008C1330008C1330008C0
:10005000C1330008C1330008C1330008C1330008B0
:10006000C1330008C1330008C1330008C1330008A0
:10007000C1330008C1330008C1330008C133000890
:10008000C1330008C1330008C1330008392F00080C
:100090002D2F0008C1330008C1330008C133000808
:1000A000C1330008C1330008C1330008C133000860
:1000B000E1290008412A0008C1330008C1330008C3
:1000C000C1330008C1330008C1330008C133000840
:1000D000C1330008C1330008C1330008C133000830
:1000E000C1330008C1330008C1330008000000001C
:1000F0000000000000000000000000000000000000
:0C01000000000000000000005FF808F1A3
:10010C0010B5054C237833B9044B13B10448AFF345
:10011C0000800123237010BDC401002000000000EA
:10012C00903C000808B5034B1BB103490348AFF3DF
:10013C00008008BD00000000C8010020903C0008B1
:10014C0038B50E4B054618784FF47A73B3FBF0F3C1
:10015C000B4A1068B0FBF3F000F09EF8044658B957
:10016C000F2D09D8024629464FF0FF3000F054F805
:10017C00044B20461D6038BD012038BD0000002016
:10018C001801002004000020074A08B5136803205A
:10019C0043F01003136000F02DF80020FFF7D0FFA0
:1001AC0002F0ECFD002008BD00200240034A044B85
:1001BC0011681B780B441360704700BF1C040020AF
:1001CC0000000020014B1868704700BF1C04002081
:1001DC0038B50446FFF7F6FF0546631C1EBF044BFB
:1001EC001B78E418FFF7EEFF401B8442FAD838BDA9
:1001FC0000000020074A0002D36800F4E06023F4FA
:10020C00E0631B041B0C43F0BF6343F40033034354
:10021C00D360704700ED00E0174B30B5DC68C4F3D9
:10022C000224C4F10703251D042B28BF0423062D2B
:10023C004FF0010598BF002405FA03F303F1FF33D7
:10024C0088BF033C1940A14005FA04F4013C22404C
:10025C00002842EA01024FEA0212AFBF00F16040EF
:10026C00064B00F00F00D2B2A5BFD2B200F5614030
:10027C001A5480F8002330BD00ED00E014ED00E0CE
:10028C000123420900F01F0003FA00F0014B43F870
:10029C002200704700E100E00138B0F1807F0AD203
:1002AC00F021064B064A586082F8231000200722E2
:1002BC0098601A6070470120704700BF10E000E0A2
:1002CC0000ED00E0044B04281A680CBF42F0040255
:1002DC0022F004021A60704710E000E0704708B585
:1002EC00FFF7FCFF08BD00002DE9F74F0022164672
:1002FC00654BDFF8A4E1DFF8A4C14FF001080C68EE
:10030C0008FA06F808EA0404A0457FD14D68122DBE
:10031C0000F0AF8000F28880022D00F0A7807CD81E
:10032C00002D00F08E80012D00F09E804FF00F0903
:10033C00FF2C93BF824606F18045083DD0F800B0F3
:10034C0092BFB500D0F804B0AD0009FA05F82BEA5D
:10035C00080802FA05F588BF00F1040A48EA050509
:10036C00CAF80050D1F804A01AF0805F4ED0474D67
:10037C00464FAD6926F0030845F00105BD61BD6926
:10038C0008F1804805F00105019508F5803806F064
:10039C00030B019D4FEA8B0BD8F8085009FA0BF9A7
:1003AC0025EA09093A4DA84268D005F58065A842AE
:1003BC0066D005F58065A84264D005F58065A84235
:1003CC000CBF0325042505FA0BF545EA0905C8F809
:1003DC0008501D681AF4803F14BF2543A5431D60C7
:1003EC005D681AF4003F14BF2543A5435D609D680A
:1003FC001AF4801F14BF2543A5439D60DD681AF4D1
:10040C00001F14BF2C4325EA0404DC600136102EB7
:10041C007FF473AF03B0BDE8F08F032D22D0112D04
:10042C0084D1CA68043281E71A4FBD4209D012D870
:10043C00DFF86C904D4504D009F580394D457FF4BB
:10044C0075AF8A68C2B1012A0CBFC0F81080C0F821
:10045C00148008226AE77545F3D06545F1D0DFF8C2
:10046C004490EBE7002261E7CA685FE7CA6808328C
:10047C005CE7CA680C3259E7042257E70025A2E76B
:10048C000125A0E702259EE7000401400010024070
:10049C000008014000002110000031100000321053
:1004AC0000001110000022102DE9F041044686B026
:1004BC00002860D090F8293403F0FF021BB980F8B3
:1004CC00282402F0CBFD254603236E4655F8100B6D
:1004DC0084F8293401F03AFA0FCD0FC62B6804F1D9
:1004EC000408336098E80E00206801F01FFA002120
:1004FC00206801F035FA00212346224601260846E1
:10050C0004F1100582F82810918601310F2982F828
:10051C00296082F82B009063D063106402F12002F2
:10052C00F0D10022174683F828229A8601320F2A2E
:10053C0083F8297283F82B72C3F83872C3F83C72B3
:10054C00C3F8407203F12003EDD16E460FCD0FC6F8
:10055C002B68336098E80E00206801F003FA012341
:10056C0084F82470206884F8293401F0D3FC00202E
:10057C0006B0BDE8F0810120FAE790F8283410B5F8
:10058C00012B04460ED0012180F8281402F09BFEAA
:10059C00206801F0BDFC206801F0CFF9002084F840
:1005AC00280410BD022010BD90F8282410B5012A93
:1005BC0004460BD0012280F8282484F8241000680B
:1005CC0001F0A0FC002084F8280410BD022010BD0E
:1005DC0038B5044648B2002801F07F05B5BF04EBDE
:1005EC00451104EB4111283101F50A71C00F0D7052
:1005FC004870CB7094F828340A61012B09D0012380
:10060C00206884F8283401F0C9F9002084F8280403
:10061C0038BD022038BD4BB2002B01F07F02B5BFB4
:10062C0000EB421100EB4111283101F50A71DB0F8F
:10063C0010B50A704B7090F828340446012B09D081
:10064C00012380F82834006801F01AFB002084F89C
:10065C00280410BD022010BD70B5002601F07F01EA
:10066C004D01441984F8281205F50A710144C4F8A7
:10067C003C22C4F84032C4F8446284F82962006811
:10068C0001F062FC304670BD01F00F0100EB41112E
:10069C00B1F84402704701F07F0170B54D01441967
:1006AC0023640026012384F8281005F12801014455
:1006BC00E263666484F82930006801F045FC30463A
:1006CC0070BD00002DE9F3470446006801F024FCDE
:1006DC00000400F19880206801F01EFC41050FD544
:1006EC0022682046B2F8443023F480631B041B0CB0
:1006FC00A2F8443002F0F1FC00212046FFF754FF31
:10070C00206801F009FC470408D52268B2F844308F
:10071C0023F480431B041B0CA2F84430206801F026
:10072C00FBFB860408D52268B2F8443023F400534E
:10073C001B041B0CA2F84430206801F0EDFBC5042F
:10074C001CD522682046B2F8403023F004031B0469
:10075C001B0CA2F84030B2F8403023F008031B0405
:10076C001B0CA2F8403002F0D5FC2268B2F84430E1
:10077C0023F480531B041B0CA2F84430206801F0B6
:10078C00CBFB00051DD52068B0F840309BB243F080
:10079C000803A0F84030B0F8443023F400631B0485
:1007AC001B0CA0F84430B0F840309BB243F004036B
:1007BC00A0F8403001F0B0FBC10402D4204602F096
:1007CC0099FC206801F0A8FB82050BD52268204615
:1007DC00B2F8443023F400731B041B0CA2F8443011
:1007EC0002F077FC206801F097FBC30508D522685E
:1007FC00B2F8443023F480731B041B0CA2F8443071
:10080C0002B0BDE8F0870023C84FDFF82483DFF87F
:10081C002493ADF80430ADF806302068B0F84430BD
:10082C009BB2ADF804301B047FF555AFBDF80450F6
:10083C0015F00F0540F0AB80BDF80410038811F0E3
:10084C0010019BB226D13B400380B0F8503094F895
:10085C0028209BB203EBC20300EB4300D0F8043416
:10086C00E26BC3F3090363641344E363204602F0B1
:10087C0029FC94F82430002BCFD0226C002ACCD148
:10088C0094F82430216843F08003A1F84C3084F8AC
:10089C002420C2E7ADF80630BDF806301A051FD586
:1008AC00B0F8503094F828229BB203EBC20300EB53
:1008BC004303D3F80C34B4F82C22C3F30903C4F863
:1008CC00443204F22C4101F03FFC2268204613888C
:1008DC0023F070031B051B0D138002F0E5FB9CE756
:1008EC00BDF806301B0498D5038823F070031B0554
:1008FC001B0D0380B0F8503094F828229BB203EB08
:10090C00C20300EB4303D3F80C34C3F30903C4F85C
:10091C00443263B1B4F82C22D4F83C1201F014FC2C
:10092C00D4F83C32D4F844221344C4F83C320021AD
:10093C00204602F0BFFB2268D4F83852B2F85010AF
:10094C003E2D89B201F1060102F5806017D9C5F37D
:10095C004F13EE0604BF03F1FF339BB249EA832326
:10096C009BB240F8113013889BB203EA080383F45E
:10097C00405343F4004343F0800313804DE7C5F329
:10098C004F03ED0744BF01339BB29B02E8E730F8FD
:10099C0025309BB2ADF80630BDF8063019043FD5B2
:1009AC0030F825304FEA451A23F070031B051B0D58
:1009BC0020F8253004EB0A0191F83232002B74D167
:1009CC00B0F8503091F828229BB2063303EBC203E7
:1009DC0000EB4303D3F80064C6F3090636B1B1F853
:1009EC002C223346D1F83C1201F0AEFB04EB0A0189
:1009FC00D1F84432D1F83C223344C1F84432D1F816
:100A0C0040323244C1F83C2223B1D1F8380286423C
:100A1C0080F08680A2449AF82812204602F04AFB05
:100A2C00BDF806301A067FF5F8AE20686E0130F876
:100A3C002530A1199BB23B4020F8253091F832307B
:100A4C000235002B78D1B0F8503091F828209BB2A9
:100A5C00023303EBC20300EB4303D3F8003404EB83
:100A6C004515C3F309036B601BB18A8DC96B01F08B
:100A7C0059FA22682644B2F8503096F828109BB2E6
:100A8C00023303EBC10302EB4303D3F80024F36BF3
:100A9C00C2F3090272641A44336CF2632046002BD1
:100AAC0040F0858002F00EFBB7E691F8283230F862
:100ABC002320DB0012F4804FB0F8502092B221D0EA
:100ACC000232134400EB4303D3F80064C6F3090667
:100ADC0036B13346B1F82E22D1F83C1201F034FB7A
:100AEC0004EB0A0393F82812226832F8213023F021
:100AFC00F0031B051B0D43F4004343F0C00322F825
:100B0C00213073E70632134400EB4303D3F800643F
:100B1C00C6F30906002EE3D03346B1F83022DBE7EA
:100B2C0091F828122046FFF797FD79E70F8FFFFF0A
:100B3C008FBFFFFF0080FFFF91F8283030F8232093
:100B4C00DB0012F0400FB0F8502092B220D00232ED
:100B5C00134400EB4303D3F8003404EB4515C3F303
:100B6C0009036B601BB1CA8DC96B01F0DBF9A319CA
:100B7C0093F82810226832F8213023F0F0031B057B
:100B8C001B0D43F4404343F0800322F8213070E7FF
:100B9C000632134400EB4303D3F8003404EB451541
:100BAC00C3F309036B60002BE1D00A8EDCE7FFF77F
:100BBC0072FD32E6012238B54BB2002B01F07F05F5
:100BCC00B5BF00EB451100EB4111283101F50A715D
:100BDC00DB0FEDB28A700D704B7090F82834044620
:100BEC0093420ED080F82824006801F017F925B93B
:100BFC0004F22C41206801F093F9002084F82804B9
:100C0C0038BD022038BD38B500244BB2002B01F0A2
:100C1C007F02B5BF00EB421100EB4111283101F509
:100C2C000A71DB0F8C700A704B7090F828340546F3
:100C3C00012B09D0012380F82834006801F020F939
:100C4C0085F82844204638BD022038BD11F0800FAD
:100C5C001BBF01F07F0100EB411000EB411028306D
:100C6C0008BF00F50A701AB98272838000207047A1
:100C7C000122C3801B0C82720381F7E703682DE904
:100C8C00F341DB07054610D42B689F075ED42B6815
:100C9C00190700F195802B685A0700F1BF80EA69AB
:100CAC00002A40F02D81002014E0904C636803F082
:100CBC000C03042B07D0636803F00C03082B0CD136
:100CCC006368DE0309D523689C03DDD56B68002BB4
:100CDC00DAD1012002B0BDE8F0816B68B3F5803F3A
:100CEC0010D1236843F480332360FFF76BFA064678
:100CFC0023689803C8D4FFF765FA801B6428F7D9DA
:100D0C000320E7E79BB9236823F48033236023682F
:100D1C0023F480232360FFF755FA064623689903D2
:100D2C00B2D5FFF74FFA801B6428F7D9E8E7B3F583
:100D3C00A02F236803D143F480232360D1E723F44D
:100D4C0080332360236823F48023CDE7674C6368EA
:100D5C0013F00C0F07D0636803F00C03082B10D1B1
:100D6C006368DA030DD423689B0702D52B69012B2A
:100D7C00AFD123686A6923F0F80343EAC203236006
:100D8C0085E72A695A4B6AB101221A60FFF71AFAF1
:100D9C00064623689F07ECD4FFF714FA801B022841
:100DAC00F7D9ADE71A60FFF70DFA064623689807E6
:100DBC007FF56DAFFFF706FA801B0228F6D99FE787
:100DCC00AA694A4C4B4BDAB101221A60FFF7FAF9C7
:100DDC000646636A9B070DD54FF4FA52464B1B68C7
:100DEC00B3FBF2F3019300BF019B5A1E0192002B3F
:100DFC00F9D150E7FFF7E6F9801B0228E9D97FE724
:100E0C001A60FFF7DFF90646636A9F077FF543AF69
:100E1C00FFF7D8F9801B0228F6D971E7334CE36948
:100E2C00D80024D40127E36943F08053E361E369DC
:100E3C0003F080530093009B304E3368D90518D5CE
:100E4C00EB68012B26D1236A43F001032362FFF7E1
:100E5C00B9F941F288368046236A9B073FD5002FAB
:100E6C003FF41DAFE36923F08053E36117E70027DC
:100E7C00E2E7336843F480733360FFF7A3F98046ED
:100E8C003368DA05DCD4FFF79DF9A0EB0800642881
:100E9C00F6D935E7ABB9236A41F2883823F0010360
:100EAC002362236A23F004032362FFF78BF90646BF
:100EBC00236A9807D3D5FFF785F9801B4045F7D9EE
:100ECC001EE7052B236A03D143F004032362BAE720
:100EDC0023F001032362236A23F00403B6E7FFF730
:100EEC0071F9A0EB0800B042B6D909E70010024036
:100EFC000000424280044242180100200070004071
:100F0C00224C636803F00C03082B3FF4E2AE002381
:100F1C001F4E022A33602BD1FFF754F90746236882
:100F2C0099011FD42B6AB3F5803F05D16268A9687B
:100F3C0022F400320A436260696A62680B4322F44D
:100F4C0074121343636001233360FFF73BF90546CA
:100F5C0023689A013FF5A7AEFFF734F9401B02282E
:100F6C00F6D9CDE6FFF72EF9C01B0228D7D9C7E674
:100F7C00FFF728F9054623689B017FF594AEFFF730
:100F8C0021F9401B0228F6D9BAE600BF0010024036
:100F9C006000424230B587B00D461022002102A8F5
:100FAC0002F02EFA02230393032305934FF480736C
:100FBC000A4C0293A36902A943F00403A361A36939
:100FCC00074803F004030193019BFFF78DF9616857
:100FDC0021F0E0612943616007B030BD0010024090
:100FEC000008014030B5194B87B002AC03F1100575
:100FFC00224618685968083303C2AB421446F7D12D
:10100C0001238DF80430022311498DF805304B680B
:10101C0003F00C02082A17D1C3F3834206A802443A
:10102C00DB0312F8102C0CD54B680A48C3F3404371
:10103C00504306AA134413F8143CB0FBF3F007B06A
:10104C0030BD05485043FAE70248F8E7A83C0008D1
:10105C000010024000127A0000093D004D4A2DE9B3
:10106C00F0411368054603F007038B420E4628D364
:10107C002A68910732D4D20738D4464A136803F051
:10108C0007039E4273D32A68434C12F0040F79D1A4
:10109C00130706D563682A6923F4605343EAC20335
:1010AC006360FFF79FFF63683C4AC3F30313D35C91
:1010BC00D8403B4B18600020FFF742F80020BDE8F9
:1010CC00F081136823F007030B431360136803F0DC
:1010DC0007039942CCD00120BDE8F0812E49A868C5
:1010EC004B6823F0F00303434B60C4E76A682A4C57
:1010FC00012A23681CD113F4003FECD0636841F241
:10110C00883823F0030313436360FFF75BF86B68C5
:10111C000746012B14D1636803F00C03042BACD0ED
:10112C00FFF750F8C01B4045F5D90320BDE8F0810E
:10113C00022A02D113F0007FDFE713F0020FDCE785
:10114C00022B0FD1636803F00C03082B95D0FFF72B
:10115C0039F8C01B4045F5D9E7E7FFF733F8C01B5A
:10116C004045E2D8636813F00C0FF6D185E713689D
:10117C0023F0070333431360136803F007039E4205
:10118C00A9D180E76368E96823F4E0630B436360EB
:10119C007EE700BF00200240001002404C3D0008DA
:1011AC0018010020014B1868704700BF180100207F
:1011BC0003682DE9F341D907054620D5354CE36981
:1011CC00DA0032D40127E36943F08053E361E36929
:1011DC0003F080530193019B2F4E3368DB0526D51A
:1011EC00236A13F4407336D1236A6A6823F440737C
:1011FC00134323621FB1E36923F08053E361286832
:10120C00830706D5234AA968536823F440430B434C
:10121C00536010F010001BD01E4AE9685368002080
:10122C0023F480030B43536012E00027D4E73368A8
:10123C0043F480733360FEF7C5FF80463368D805EE
:10124C00CED4FEF7BFFFA0EB08006428F6D903202C
:10125C0002B0BDE8F0816A6802F440729342C3D0D8
:10126C0001200E4A236A1060002023F440711060A4
:10127C002162D907B8D5FEF7A5FF41F2883806469A
:10128C00236A9A07B0D4FEF79DFF801B4045F7D91F
:10129C00DDE700BF001002400070004040044242F5
:1012AC00036A70B523F001030362036A4468826920
:1012BC000D6822F073022A438D6823F002032B433E
:1012CC000A4DA8420BD1CD6823F008032B438E693D
:1012DC004D6924F44074354323F004032C434460DB
:1012EC0082614A684263036270BD00BF002C0140FA
:1012FC00036A70B523F480730362036A4468C2699D
:10130C000D6822F073022A438D6823F4007343EABC
:10131C0005230B4DA8420DD1CD6823F4006343EA9D
:10132C0005238E694D6924F44054354323F48063BE
:10133C0044EA05144460C2614A68C263036270BD2A
:10134C00002C0140036A30B523F480530362036A16
:10135C004468C2690D6822F4E64242EA05228D68AF
:10136C0023F4005343EA0533064DA84202BF4D69EE
:10137C0024F4804444EA85144460C2614A680264DF
:10138C00036230BD002C014003680020DA6842F093
:10139C000102DA601A6842F001021A60704790F894
:1013AC003C3070B5012B4FF002031CD0012280F8A9
:1013BC003D30036880F83C209A6822F47F4222F08A
:1013CC0077029A600A68402A79D019D8102A00F05E
:1013DC0093800AD8002A00F08980012380F83D30E0
:1013EC00002380F83C30184670BD202A00F08A801B
:1013FC00302AF2D19A6822F0700242F0370236E0BD
:10140C00702A36D01BD8502A42D0602AE5D11C6AEB
:10141C004D6824F01004CE681C6299691A6A21F494
:10142C00704122F0A00242EA051241EA06319961AC
:10143C001A629A6822F0700242F0670217E0B2F565
:10144C00805F11D0B2F5005FC7D18A684D689C6887
:10145C00C9682A4324F47F4442EA012222439A6059
:10146C009A6842F4804202E09A6822F007029A607D
:10147C00B3E78A684D689C68C9682A4324F47F44A2
:10148C0042EA012222439A609A6842F07702EEE720
:10149C004C68CE68196A1D6A21F00A0125F0010515
:1014AC001D629A69214322F0F00242EA06129A6107
:1014BC0019629A6822F0700242F05702D7E74C6822
:1014CC00CE68196A1D6A21F00A0125F001051D621A
:1014DC009A69214322F0F00242EA06129A611962DB
:1014EC009A6822F0700242F04702C0E79A6822F034
:1014FC00700242F00702BAE79A6822F0700242F0DA
:10150C001702B4E79A6822F0700242F02702AEE7A5
:10151C0070477047704770477047036810B51A6979
:10152C00044691070ED5DA6892070BD56FF00202CC
:10153C001A6101229B6902779B0777D0FFF7EAFFBC
:10154C000023237723681A69500710D5DA685107EE
:10155C000DD56FF004021A6102229B69227713F4F5
:10156C00407F204668D0FFF7D5FF00232377236800
:10157C001A6912070FD5DA6810070CD56FF008023C
:10158C001A610422DB692277990720465AD0FFF7AB
:10159C00C1FF0023237723681A69D20610D5DA68B5
:1015AC00D0060DD56FF010021A610822DB69227784
:1015BC0013F4407F20464BD0FFF7ACFF002323777A
:1015CC0023681A69D10708D5DA68D20705D56FF0F8
:1015DC00010220461A61FFF79BFF23681A69100667
:1015EC0008D5DA68110605D56FF0800220461A611D
:1015FC0000F09BF923681A69520608D5DA68500680
:10160C0005D56FF0400220461A61FFF785FF23686D
:10161C001A69910622D5DA6892061FD56FF020025E
:10162C002046BDE810401A6100F07EB9FFF771FF4B
:10163C002046FFF770FF83E7FFF76BFF2046FFF7AD
:10164C006AFF92E7FFF765FF2046FFF764FFA0E70C
:10165C00FFF75FFF2046FFF75EFFAFE710BD00000E
:10166C001A4A036890420AD0B0F1804F07D0A2F515
:10167C009432904203D002F58062904215D14A68B0
:10168C0023F070031343114A90420AD0B0F1804FFB
:10169C0007D0A2F59432904203D002F580629042BA
:1016AC0003D1CA6823F4407313434A6923F08003BF
:1016BC00134303608B68C3620B688362034B9842CD
:1016CC0004BF0B690363012343617047002C014085
:1016DC0010B50446A0B190F83D3003F0FF021BB9E1
:1016EC0080F83C2001F0A4FB0223206884F83D30F4
:1016FC00211DFFF7B5FF0123002084F83D3010BDFC
:10170C00012010BD10B50446A0B190F83D3003F097
:10171C00FF021BB980F83C2001F076FB0223206805
:10172C0084F83D30211DFFF79BFF0123002084F836
:10173C003D3010BD012010BD036A70B523F01003BD
:10174C000362036A446882690D6822F4E64242EA45
:10175C0005228D6823F0200343EA05130B4DA842A4
:10176C000DD1CD6823F0800343EA05138E694D69D2
:10177C0024F44064354323F0400344EA8504446078
:10178C0082614A688263036270BD00BF002C014015
:10179C0038B590F83C300446012B4FF0020025D0B0
:1017AC00012384F83D0084F83C300C2A18D8DFE87B
:1017BC0002F0071717171E1717172F1717174000C8
:1017CC002068FFF76DFD236809699A6942F00802E9
:1017DC009A619A6922F004029A619A690A439A61A1
:1017EC000123002084F83D3084F83C0038BD20688B
:1017FC00FFF7A2FF236809699A6942F400629A61B3
:10180C009A6922F480629A619A6942EA0122E6E7B7
:10181C002068FFF76DFD23680969DA6942F0080258
:10182C00DA61DA6922F00402DA61DA690A43DA6110
:10183C00D6E72068FFF786FD23680969DA6942F468
:10184C000062DA61DA6922F48062DA61DA6942EA0A
:10185C000122ECE710B50124036A8C4023EA04034F
:10186C000362036A8A401A43026210BD10B5044633
:10187C0001220068FFF7EEFF2368064A002093421E
:10188C0002BF5A6C42F400425A641A6842F00102D8
:10189C001A6010BD002C014090F83C30012B1FD079
:1018AC00CB688A6823F4407313434A6823F480633B
:1018BC0013430A6823F4006313430A6923F4805327
:1018CC0013434A6923F4005313438A6923F44043B6
:1018DC00134302685364002380F83C301846704769
:1018EC000220704790F83C3010B5012B4FF00203EA
:1018FC0018D080F83D3003680C685A68496822F0AB
:10190C0070025A605A6822435A609A6822F0800228
:10191C009A609A680A439A60012380F83D3000234C
:10192C0080F83C30184610BD7047704784B001A851
:10193C0080E80E0004B000207047B0F840309BB235
:10194C0043F43F43A0F8403000207047B0F84030DB
:10195C0023F474535B045B0CA0F8403000207047F8
:10196C000020704784B010B503AC84E80E00BDE8CD
:10197C00104000220123A0F84030A0F84020A0F82D
:10198C004420A0F85020B0F8403004B09BB243F48F
:10199C003F43A0F8403010467047000070B5CB783C
:1019AC000A78032B0FD8DFE803F00264505930F8A3
:1019BC00223023F4EC4323F070031B041B0C43F480
:1019CC00007320F8223040F60F730C7830F8242086
:1019DC0044F4004545F080051A402A4320F82420A1
:1019EC008A7A0D78002A40F097804C788A88002CEF
:1019FC004AD0B0F850405208A4B204EBC50400EB36
:101A0C0044045200C4F800240C7830F82420520608
:101A1C0008D530F82420134043F4004343F0C003AE
:101A2C0020F824300A7830F8223023F4E04323F0F5
:101A3C0040031B041B0C83F0200343F4004343F0CE
:101A4C00800320F82230002070BD30F8223023F4BF
:101A5C00EC4323F070031B041B0CB2E730F822306C
:101A6C0023F4EC4323F070031B041B0C43F4C063FE
:101A7C00A7E730F8223023F4EC4323F070031B0467
:101A8C001B0C43F480639CE7B0F8503052089BB2B7
:101A9C00043303EBC503520000F5806444F81320B3
:101AAC00B0F850200D6992B20B7806323E2D02EB45
:101ABC00C30229D9C5F34F16EB0604BF06F1FF3359
:101ACC009EB26E4B43EA86239BB244F812300A78DE
:101ADC0030F822305E040BD530F8223023F0F003BE
:101AEC001B051B0D43F4404343F0800320F82230C8
:101AFC000A7830F8223023F4804323F070031B045F
:101B0C001B0C83F4405398E7C5F34F03ED0744BF18
:101B1C0001339BB29B02D7E730F8252022F4F872F0
:101B2C001205120D42F4014242F0800220F82520E9
:101B3C00B0F850200C7892B202EBC402CC8800F5BD
:101B4C0080656408640045F81240B0F850200C78A9
:101B5C0092B2043202EBC4020C896408640045F8AA
:101B6C0012404A780C78002A47D130F824205504CA
:101B7C0008D530F82420134043F4404343F080034D
:101B8C0020F824300A7830F822305C060BD530F877
:101B9C00223023F0F0031B051B0D43F4004343F0EC
:101BAC00C00320F822300A7830F8223023F0F003FA
:101BBC001B051B0D43F4004343F0C00320F82230F7
:101BCC0048F280020C7830F8243023F4804323F060
:101BDC0070031B041B0C83F44053134320F8243074
:101BEC00097830F8213023F4E04323F040031B0440
:101BFC001B0C134320F8213025E730F82420520425
:101C0C0008D530F82420134043F4404343F08003BC
:101C1C0020F824300A7830F822305B060BD530F8E7
:101C2C00223023F0F0031B051B0D43F4004343F05B
:101C3C00C00320F822300A7830F8223023F0F00369
:101C4C001B051B0D43F4404343F0800320F8223066
:101C5C0048F280020C7830F8243023F4E04323F06F
:101C6C0040031B041B0C134320F82430097830F874
:101C7C00213023F4804323F07003B8E70080FFFF8A
:101C8C0010B58C7A4A780B78CCBB02B330F8232091
:101C9C0052060BD530F8232022F0F0021205120D5B
:101CAC0042F4004242F0C00220F823200A7830F8B7
:101CBC00223023F4E04323F040031B041B0C43F4B9
:101CCC00004343F0800320F82230002010BD30F890
:101CDC00232054040BD530F8232022F0F0021205F7
:101CEC00120D42F4404242F0800220F823200A7880
:101CFC0030F8223023F4804323F07003DDE7002A10
:101D0C0048D130F8232052040BD530F8232022F090
:101D1C00F0021205120D42F4404242F0800220F80B
:101D2C0023200A7830F822305C060BD530F82230AC
:101D3C0023F0F0031B051B0D43F4004343F0C003D9
:101D4C0020F822300A7830F8223023F0F0031B05FB
:101D5C001B0D43F4004343F0C00320F8223048F23B
:101D6C0080020C7830F8243023F4804323F0700385
:101D7C001B041B0C134320F82430097830F8213055
:101D8C0023F4E04323F040031B041B0C134320F803
:101D9C0021309AE730F8232052040BD530F8232059
:101DAC0022F0F0021205120D42F4404242F0800281
:101DBC0020F823200A7830F822305B060BD530F857
:101DCC00223023F0F0031B051B0D43F4004343F0BA
:101DDC00C00320F822300A7830F8223023F0F003C8
:101DEC001B051B0D43F4404343F0800320F82230C5
:101DFC0048F280020C7830F8243023F4E04323F0CE
:101E0C0040031B041B0C134320F82430097830F8D2
:101E1C00213023F4804323F07003B5E70A788AB9A4
:101E2C00038823F4804323F040031B041B0C83F42E
:101E3C00805383F0100343F4004343F0800303808A
:101E4C00002070474B7883B130F8223023F4E04304
:101E5C0023F040031B041B0C83F0100343F40043DA
:101E6C0043F0800320F82230EAE730F8223023F4E4
:101E7C00804323F070031B041B0C83F48053EDE7A9
:101E8C004B780A7813B330F822305B060BD530F858
:101E9C00223023F0F0031B051B0D43F4004343F0E9
:101EAC00C00320F822300A7830F8223023F4E043C3
:101EBC0023F040031B041B0C83F0300343F400435A
:101ECC0043F0800320F822300020704730F8223095
:101EDC005B040BD530F8223023F0F0031B051B0DEF
:101EEC0043F4404343F0800320F822300A7830F862
:101EFC00223023F4804323F070031B041B0C83F467
:101F0C004053DBE711B98023A0F84C300020704718
:101F1C000020704700207047B0F8440080B2704732
:101F2C000020704710B50024013300F580605B1071
:101F3C0000EB4202A34200D110BD31F8020B22F893
:101F4C0024000134F6E7000070B50E468A69497822
:101F5C00054601293369B07A66D19A421C469BBF6B
:101F6C0000231446D21AB36188BFB261A3B210BB6E
:101F7C00B28871692846FFF7D5FFB5F85030327832
:101F8C009BB2023303EBC20305EB4303C3F80044DB
:101F9C00327835F8223023F4E04323F040031B045D
:101FAC001B0C83F0300343F4004343F0800325F80B
:101FBC002230002070BD327835F82210D20011F09A
:101FCC00400FB5F8501089B21AD002310A4405EB13
:101FDC004202C2F80044328971692846FFF7A2FF19
:101FEC00737832789BB935F8223023F0F0031B0557
:101FFC001B0D43F4004343F0C00325F82230C7E720
:10200C000A4405EB4202C2F80444F288E4E7012BCF
:10201C00BED135F8223023F0F0031B051B0D43F421
:10202C00404343F08003E8E79A4293BF0023D21A5F
:10203C00B261B36198BF1346327870BBB5F85010DB
:10204C003E2B89B201F1060101EBC20105F580605E
:10205C0018D9C3F34F12DB0604BF02F1FF339AB257
:10206C00384B43EA82239BB240F81130327835F872
:10207C00223023F4804323F070031B041B0C83F4E5
:10208C00405390E7C3F34F02DC0744BF013292B2D6
:10209C00920292B240F81120E8E7B9B9B5F85010A5
:1020AC003E2B89B201F1020101EBC20105F58064FE
:1020BC0028D9C3F34F10DA0604BF00F1FF3290B2F7
:1020CC00204A42EA802292B244F811207278317888
:1020DC005ABBB5F850203E2B92B202F1060202EB2D
:1020EC00C10205F5806015D9C3F34F11DC0604BF9E
:1020FC0001F1FF3399B2134B43EA81239BB240F8B1
:10210C001230B3E7C3F34F02D80744BF013292B287
:10211C009202D8E7C3F34F01DB0744BF013189B208
:10212C00890289B240F81210A0E7012A9ED1B5F8B5
:10213C00502092B2023202EBC10205EB4202C2F80D
:10214C00003493E70080FFFF10B50024013300F545
:10215C0080605B1000EB4202A34200D110BD52F82C
:10216C00240021F814000134F6E7D0F818321BB122
:10217C000020C3F81402704702207047D0F81C32BC
:10218C0010B5D0F818425BB194F80002FF2807D0C4
:10219C009B6894F8012221469847FF2384F800326B
:1021AC00002010BD432303800048704740000020EE
:1021BC00432303800048704784000020432303809E
:1021CC0000487047D40000200A2303800048704761
:1021DC00C800002038B50546D0F8184201F068F860
:1021EC00D5F81832C4F80C024BB1D5F81C3204F5F2
:1021FC000371DB68D4F804029847002038BD022034
:10220C0038BD0000F8B50F78064617F060030C4691
:10221C0023D0202B19D1CA884B78C2B13906D0F8FB
:10222C0018520BD5D0F81C1218468F682946B8479F
:10223C0029463046E28800F08AFB06E085F8003239
:10224C0085F80122294600F097FB0020F8BDD0F854
:10225C001C0284681846A047F7E74B780A2BF4D188
:10226C0001220149E7E700BFE001002010B5044658
:10227C00812100F0B9FF0121204600F0B5FF822139
:10228C00204600F0B1FFD4F8183253B1D4F81C3208
:10229C005B689847D4F8180201F014F80023C4F8CE
:1022AC001832002010BDF8B5037C04467BBB4FF4FC
:1022BC0000730222812100F087FF4FF40073022289
:1022CC000121204600F080FF0823032282212046B2
:1022DC0000F07AFF4FF4077000F0F0FF0646C4F8E8
:1022EC00180220B30025D4F81C321B689847277CB1
:1022FC00C6F81452C6F8185287B94FF40073D6F8C2
:10230C0004220121204600F0C5FF3846F8BD4023C9
:10231C000222812100F058FF4023D0E74023D6F859
:10232C0004220121204600F0B5FF2846F8BD01200B
:10233C00F8BD19B1C0F81C1200207047022070477C
:10234C00D0F818320020C3F80812C3F810227047D6
:10235C00D0F818320020C3F804127047D0F81822B5
:10236C0010B572B1D2F81442012364B9C2F8143218
:10237C008121B2F81032D2F8082200F07DFF2046FD
:10238C0010BD022010BD184610BDD0F8182210B593
:10239C0062B1047C44B94FF40073D2F804220121D9
:1023AC0000F078FF002010BD4023F6E7022010BD9E
:1023BC0008B580B1D0F8143213B10023C0F8143230
:1023CC0009B1C0F810120123027080F8FC3100F042
:1023DC00A5FE002008BD022008BD19B1C0F81412DA
:1023EC00002070470220704708B500F0DFFE002087
:1023FC0008BD08B5D0F814320BB9022008BD1B6813
:10240C0098470028F9D108BD08B5D0F814325B689C
:10241C009847002008BD38B500F5027504462846DB
:10242C0000F065FA012394F80812C4F8F431B4F8FA
:10243C000E32C4F8F83101F01F03012B0ED007D374
:10244C00022B10D001F08001204600F0DBFE03E0EF
:10245C002946204600F0D6F8002038BD29462046F3
:10246C0000F0CAF9F8E72946204600F0DDF9F3E759
:10247C0038B50446154611BBD0F8F431032B0FD1F7
:10248C00D0F80C31D0F8102193420BD99B1A9A42F8
:10249C0028BF1A46C0F80C3192B2294600F07BFADC
:1024AC00002038BDD0F814321B6923B190F8FC2100
:1024BC00032A00D19847204600F075FAF0E7D0F8CF
:1024CC0014329B69002BEBD090F8FC21032AE7D146
:1024DC009847E5E770B5134604460E4600293DD1F2
:1024EC00D0F8F421022A0FD1C569026A954214D999
:1024FC00AA1AC261194692B200F036FA33461A464D
:10250C001946204600F0C6FE94F80032012B02D189
:10251C00002384F80032002070BD8369B3FBF2F510
:10252C0002FB153565B99A420AD8D0F8F8219342C6
:10253C0006D22A4600F018FAC4F8F8512B46DEE70A
:10254C00D4F81432DB682BB194F8FC21032A01D1A6
:10255C0020469847204600F031FAD5E7D0F81432DF
:10256C005B69002BD7D090F8FC21032AD3D1984774
:10257C00D1E7002238B5044640251146402300F02F
:10258C0023FE2B46C4F8105100228021204600F077
:10259C001BFE012384F8FC31D4F8183225622BB1D0
:1025AC00D4F8143221795B6820469847002038BD56
:1025BC0001740020704790F8FC3180F8FD31042341
:1025CC0080F8FC310020704790F8FD3180F8FC3128
:1025DC000020704708B590F8FC21032A04D1D0F8EC
:1025EC001432DB6903B19847002008BD10B50446CE
:1025FC00802100F007FE2046BDE81040002100F0CD
:10260C0001BE000037B54B7804460D46092B79D82E
:10261C00DFE813F0C900E5007800D90078006D0000
:10262C000A007800B9008D004B881A0A013A062A74
:10263C0068D8DFE802F0041C296767495200D0F81B
:10264C0010321B680DF10601207C9847BDF806205E
:10265C00002A67D0EB88002B64D09A4228BF1A4618
:10266C000146ADF80620204600F071F95AE0027CD4
:10267C00D0F8143232B99B6A0DF106009847022348
:10268C004370E3E7DB6AF7E7DBB2052B3AD8DFE808
:10269C0003F003070B0F1317D0F810325B68D1E768
:1026AC00D0F810329B68CDE7D0F81032DB68C9E760
:1026BC00D0F810321B69C5E7D0F810325B69C1E75E
:1026CC00D0F810329B69BDE7037CDBB9D0F814322B
:1026DC000DF106005B6B9847B8E7037C93B9D0F813
:1026EC0014320DF106001B6B98470723C8E78B8843
:1026FC0043B9CB8833B990F8FC318D78032B05F0B6
:10270C007F0503D12046FFF771FF0BE080F8FE51E7
:10271C00294600F0A3FD204600F045F92DB1022317
:10272C0084F8FC31002003B030BD0123F8E7897830
:10273C00304D01292970E5D890F8FC31022B0CD0D2
:10274C00032BDFD1B1B90223416080F8FC31FFF7D4
:10275C005BFE204600F027F9E4E70029F9D00121BF
:10276C000323416080F8FC312046FFF742FE02282B
:10277C00EFD1C7E741680129EBD0C9B2FFF744FE9E
:10278C0029786160F0E7CA88012ABBD190F8FC3146
:10279C00022B03D0032BB5D1011D64E701460023A6
:1027AC0041F8083F5FE790F8FC31023B012BA9D8B8
:1027BC000123C360D0F804320BB10323C36002229F
:1027CC0004F10C014FE74B88012BABD1C4F8043258
:1027DC00D4F8143229469B6820469847B9E790F8FC
:1027EC00FC31023B012B8DD84B88012B9AD1002355
:1027FC00ECE700BFE101002038B590F8FC3104464D
:10280C00032B0D460DD10B79012B0AD8D0F81432BD
:10281C009B689847EB8813B9204600F0C4F8002059
:10282C0038BDFFF7E3FEFAE770B50A788E8802F040
:10283C006002202A04460D46F3B205D1D0F81432BA
:10284C009B689847002070BD4A78012A1CD02AD377
:10285C00032AF7D190F8FC21022A40D0032A02D097
:10286C00FFF7C4FEEEE74A8822B95E0602D019468D
:10287C0000F0C8FCD4F8143229469B6820469847CF
:10288C00204600F090F8DDE790F8FC21022A26D0D3
:10289C00032AE5D14A88002AD4D15906F0D019462A
:1028AC0000F0BEFCE6E790F8FC21022A17D0032AC0
:1028BC00D6D103F07F0516F0800F00EB05151946F5
:1028CC0014BF143505F5827500F0B8FC68B101230E
:1028DC002B6002222946204600F039F8B2E75A064E
:1028EC00B0D0194600F08EFCACE72860F1E70B780D
:1028FC0003704B784370CA788B7803EB02234380C8
:10290C004A790B7903EB02238380CA798B7903EB29
:10291C000223C380704730B588B105462B1A15F8D1
:10292C00014BDBB2002CF9D15B00023313800B702E
:10293C0003234B700223013810F8015F05B930BD39
:10294C005A1CCD54D2B20233DBB28C54F4E713468A
:10295C00022210B5C0F8F42183610A46C36100213C
:10296C0000F08AFC002010BD08B513460A46002171
:10297C0000F082FC002008BD1346032210B5C0F8FD
:10298C00F421C0F808310A46C0F80C31002100F0DF
:10299C0081FC002010BD08B513460A46002100F04A
:1029AC0079FC002008BD08B50423C0F8F4310023DD
:1029BC001A46194600F060FC002008BD08B5052336
:1029CC00C0F8F43100231A46194600F063FC0020CD
:1029DC0008BD0000134B1A6822F001021A60596AF4
:1029EC00114A11601A69114912F0010F1A461EBFE3
:1029FC000B6801330B600B68506AC3EB0343034451
:102A0C000B485B00036000236FF001000B604FF07C
:102A1C008041086153624B62136843F001031360F9
:102A2C00704700BF00040040EC010020E8010020CA
:102A3C00E401002008B50448FEF76FFD034A136853
:102A4C000133136008BD00BF60040020E8010020C2
:102A5C004FF4803330B595B001240B930822022536
:102A6C0012934FF4E0130AA80A940C921195139345
:102A7C00FEF704F900B1FEE70F2305934FF48063D2
:102A8C0007900990214605A806950893FEF7E6FAEB
:102A9C0000B1FEE71023049001A80193FEF788FB18
:102AAC00044600B1FEE702464FF0C061FEF772FA31
:102ABC00FEF778FB4FF47A73B0FBF3F0FDF7ECFB09
:102ACC000420FDF7FFFB224603214FF0FF30FDF7FA
:102ADC00A3FB15B030BD000080B59B4D98B0FDF741
:102AEC0053FBFFF7B5FFAB69032743F00403AB615E
:102AFC00AB694FF0000803F004030293029BAB692F
:102B0C00802643F00803AB61AB6911A903F00803FD
:102B1C000393039B4FF48073119302238B481293FE
:102B2C001497FDF7E1FB894811A91196CDF848805F
:102B3C001497FDF7D9FB4FF080404BF67F33844C54
:102B4C0084E8090040F2DB532046C4F80880E360B7
:102B5C00C4F81080C4F81880FEF7BAFD00B1FEE787
:102B6C004FF4805811A92046CDF84480FEF717FC8D
:102B7C0000B1FEE70A900B900AA92046FEF7B2FEC0
:102B8C00814600B1FEE700F0F9F901227148724C60
:102B9C0042604FF6FF72C0F80890C0F81090C0F871
:102BAC0018900460C260FEF793FD814600B1FEE709
:102BBC00AB6911A943F01003AB61AB69129003F040
:102BCC001003019313906148019B1196FDF78CFB48
:102BDC00A369624943F48073A361A36843F00703BC
:102BEC00A360A36843F06003A360236843F0010370
:102BFC00236047235A4C84E80A0040F2E73320460E
:102C0C00C4F80890E360C4F81090A661FEF760FD6C
:102C1C0000B1FEE70AA92046CDF82880FEF7BFFBDD
:102C2C0000B1FEE72046FEF76DFD00B1FEE7602324
:102C3C004FF0040811934FF4FA731390424611A904
:102C4C0020461293CDF85480FEF7A2FD054600B144
:102C5C00FEE7204600F02CF920464146FEF706FE22
:102C6C001123404C404A204684E80C00A560E760E4
:102C7C0025616561A661FEF745FD00B1FEE7049094
:102C8C00059004A92046FEF72DFE00B1FEE7602357
:102C9C0004250A9302232A460AA932480B930E955F
:102CAC00FEF776FD00B1FEE74FF4805318A941F80A
:102CBC00483D2C48FEF773FB00B1FEE74FF4005380
:102CCC0011901290139014901590179011A92548FB
:102CDC001693FEF7E1FD044600B1FEE7214800F033
:102CEC00E7F829461F48FEF7C1FD224621461C2065
:102CFC00FDF792FA1C20FDF7C3FA224601211D2094
:102D0C00FDF78AFA1D20FDF7BBFA1148FEF73CFBD4
:102D1C001048FEF739FB4FF4FA70FDF759FA1348D7
:102D2C0000F082F94FF4FA70FDF752FA104D114C85
:102D3C004FF47A70FDF74CFA284600F075F92068CC
:102D4C0000F07CF9F4E700BF0010024000080140DD
:102D5C00E004002060040020000400400008004053
:102D6C0020040020A0040020002C0140B83C0008E6
:102D7C003F3D0008E4010020FEE70000204B07B5B2
:102D8C009A69032042F001029A619B6903F00103E6
:102D9C000193019BFDF72EFA00226FF00B001146F8
:102DAC00FDF73AFA00226FF00A001146FDF734FAEB
:102DBC0000226FF009001146FDF72EFA00226FF089
:102DCC0004001146FDF728FA00226FF003001146AB
:102DDC00FDF722FA00226FF001001146FDF71CFAF4
:102DEC0000224FF0FF301146FDF716FA054A5368E2
:102DFC0023F0E06343F00073536003B05DF804FB11
:102E0C0000100240000001400268084B82B09A4258
:102E1C000AD103F564439A6942F400629A619B6992
:102E2C0003F400630193019B02B07047002C014036
:102E3C007FB50368B3F1804F0DD103F50433DA6924
:102E4C0042F00102DA61DB6903F001030093009B9D
:102E5C0007B05DF804FB124A934213D1114B02A93F
:102E6C00DA69114842F00202DA61DB6903F002030D
:102E7C000193019B80230293002303930493FDF79A
:102E8C0033FAE5E7094A9342E2D1064BDA6942F09C
:102E9C000402DA61DB6903F004030293029BD7E7B7
:102EAC0000040040001002400008014000080040EF
:102EBC001FB503680E4A93420DD14FF400710223E3
:102ECC008DE80A00032369460A480393FDF70CFAC0
:102EDC0005B05DF804FB084A9342F9D10223802225
:102EEC008DE80C000323694603930448EEE700BF0A
:102EFC00002C01400008014000080040000C01407B
:102F0C007047FEE7FEE7FEE7FEE770477047704745
:102F1C0008B5FDF74BF9BDE80840FDF7E0B9000036
:102F2C000148FDF7CFBB00BF140F0020FFF7F8BF1F
:102F3C000F4B1A6842F001021A6059680D4A0A4098
:102F4C005A601A6822F0847222F480321A601A686D
:102F5C0022F480221A605A6822F4FE025A604FF45E
:102F6C001F029A604FF00062034B9A60704700BFDB
:102F7C00001002400000FFF800ED00E010B5094C15
:102F8C00002209492046FFF713FA08492046FFF7AB
:102F9C0024FA20460649FFF7CCF92046BDE810403C
:102FAC00FFF722BA200500202C0100200800002089
:102FBC001C010020002070470020704710B5054C04
:102FCC0001462046FFF7C4F92046FFF7DEF9002042
:102FDC0010BD00BF2005002010B5064C002206498C
:102FEC002046FFF7ADF905492046FFF7B1F900205F
:102FFC0010BD00BF200500202C0B00204407002032
:10300C0008B5084B0A46D3F81812D1F81432002B25
:10301C00FBD101460348FFF793F9BDE8084001488E
:10302C00FFF79CB920050020431C191A13F8012B3B
:10303C00002AFAD189B2FFF7E3BF000000B589B0CE
:10304C0002460549684600F0E3F96846FFF7ECFFD5
:10305C0009B05DF804FB00BF5C3D000807B5114BDF
:10306C0002689A421AD103F5DA33DA69022142F482
:10307C000002DA61DB69002203F4000301931320E0
:10308C00019BFDF7C9F81320FDF7FAF81420002274
:10309C000221FDF7C1F81420FDF7F2F803B05DF83A
:1030AC0004FB00BF005C004000F22C41D0F85C0433
:1030BC00FFF7B1B900EB4113D3F83C22D0F85C0414
:1030CC00FFF7D6B900EB4113DA6BD0F85C04FFF7CD
:1030DC0001BAD0F85C04FFF77DBA10B504460121A3
:1030EC00D0F85C04FFF764FAD4F85C04BDE8104037
:1030FC00FFF73FBA10B50446D0F85C04FFF75BFA53
:10310C00A36923B1024A136943F00603136110BD8E
:10311C0000ED00E0D0F85C04FFF756BA08234FF03E
:10312C00020C10B51E4A04461E4880E80C10002301
:10313C00C0F85C44C4F82002C3608361C3610362BD
:10314C00FDF7B2F920B14FF499711748FFF714FE4F
:10315C00002218231146D4F82002FDF777FD5823DE
:10316C0000228021D4F82002FDF770FDC02300223C
:10317C008121D4F82002FDF769FD4FF488730022F9
:10318C000121D4F82002FDF761FD4FF48073002279
:10319C008221D4F82002FDF759FD002010BD00BF9C
:1031AC00005C0040140F0020633D000808B5D0F807
:1031BC002002FDF7E2F903289ABF024B185C0220AB
:1031CC0008BD00BF5F3D000810B51C46D0F82002BA
:1031DC0013462246FDF7FCF903289ABF014B185CF5
:1031EC00022010BD5F3D000808B5D0F82002FDF7A5
:1031FC0012FA03289ABF024B185C022008BD00BFCC
:10320C005F3D000808B5D0F82002FDF7D3FC032879
:10321C009ABF024B185C022008BD00BF5F3D00083E
:10322C0008B5D0F82002FDF7EEFC03289ABF024B3C
:10323C00185C022008BD00BF5F3D00080A06D0F8EC
:10324C00203245BF01F07F0103EB411303EB411327
:10325C0093F82A0058BF93F82A02704708B5D0F8A3
:10326C002002FDF7A1F903289ABF024B185C02203B
:10327C0008BD00BF5F3D000808B5D0F82002FDF77F
:10328C000AFA03289ABF024B185C022008BD00BF43
:10329C005F3D000808B5D0F82002FDF7DDF90328E2
:1032AC009ABF024B185C022008BD00BF5F3D0008AE
:1032BC0008B5D0F82002FDF7E7F908BD00487047C3
:1032CC00F001002070477047122301480B807047B3
:1032DC0048010020042301480B8070475C0100204A
:1032EC0010B5044C0A4604482146FFF714FB20464F
:1032FC0010BD00BF741300208F3D000810B5044CA6
:10330C000A4604482146FFF706FB204610BD00BFC5
:10331C0074130020A23D000810B5044C0A46044862
:10332C002146FFF7F8FA204610BD00BF74130020A9
:10333C00B83D000810B5044C0A4604482146FFF776
:10334C00EAFA204610BD00BF74130020763D000839
:10335C0010B5044C0A4604482146FFF7DCFA204617
:10336C0010BD00BF74130020813D0008002103E054
:10337C000B4B5B58435004310A480B4B42189A4292
:10338C00F6D30A4A02E0002342F8043B084B9A4267
:10339C00F9D3FFF7CDFD00F00FF8FFF79DFB704759
:1033AC00003E000800000020C4010020C4010020E1
:1033BC0078150020FEE7000070B500250C4E0D4C72
:1033CC00A41BA410A54209D100F05CFC00250A4EF8
:1033DC000A4CA41BA410A54205D170BD56F825308B
:1033EC0098470135EEE756F8253098470135F2E756
:1033FC00F83D0008F83D0008F83D0008FC3D0008C9
:10340C0003460244934200D1704703F8011BF9E7CD
:10341C000EB44FF4027100B59CB0ADF814106FF0FF
:10342C000041049107914FF6FF711DAB029006907D
:10343C00084853F8042BADF81610006802A9019344
:10344C0000F066F80022029B1A701CB05DF804EBC9
:10345C0003B07047600100202DE9F0478E6882466A
:10346C009E420C469146984635D88A8912F4906F44
:10347C0031D00223256809696F1A656905EB45058A
:10348C0095FBF3F508F101033B449D4238BF1D4603
:10349C00530531D5294600F047FB064650B90C239D
:1034AC00CAF80030A3894FF0FF3043F04003A381EA
:1034BC00BDE8F0873A46216900F0C4FAA38923F4E9
:1034CC00906343F08003A38126613E442660464608
:1034DC006561ED1BA560464528BF46464946324608
:1034EC00206800F0BAFAA36800209B1BA360236835
:1034FC001E442660BDE8F0872A4600F073FB0646A2
:10350C000028E1D12169504600F0C2FAC7E700005B
:10351C002DE9F04F9DB003938B8980461C060D4618
:10352C0016460FD50B696BB9402100F0FDFA2860E7
:10353C00286128B90C23C8F800304FF0FF30C4E0E4
:10354C0040236B610023099320238DF8293030230D
:10355C004FF0010B8DF82A3037463C4614F8013BEE
:10356C00002B3CD1B7EB060A0BD05346324629460A
:10357C004046FFF771FF013000F0A280099B5344D5
:10358C0009933B78002B00F09B8000234FF0FF3217
:10359C0004930793059206938DF853301A930522E2
:1035AC002178504800F040FA671C049BD8B9D90622
:1035BC0044BF20228DF853201A0744BF2B228DF8CC
:1035CC00532022782A2A16D000210A20079A27464F
:1035DC003B780134303B092B50D9C9B111E0252B74
:1035EC00C0D02746B9E73F4A3C46801A0BFA00F098
:1035FC0018430490D3E7039A111D12680391002A13
:10360C0001DB079204E0524243F002030792049359
:10361C003B782E2B0DD17B78791C2A2B32D1039B36
:10362C0002371A1D1B680392002BB8BF4FF0FF33F3
:10363C0005932D4C03223978204600F0F5F938B16A
:10364C004023001B03FA00F0049B0137034304934F
:10365C003978062225487E1C8DF8281000F0E4F9F4
:10366C00002835D0224BFBB9039B073323F007030B
:10367C0008330393099B4B4409936DE700FB02321B
:10368C000121A4E700230A24184605930F463A7833
:10369C000131303A092A03D9002BCAD00590C8E76A
:1036AC0004FB00200123F1E703AB00932A46114BE6
:1036BC0004A94046AFF30080B0F1FF3F8146D9D159
:1036CC00AB895B063FF539AF09981DB0BDE8F08FAB
:1036DC0003AB00932A46074B04A9404600F084F83C
:1036EC00EAE700BFC53D0008CB3D0008CF3D000810
:1036FC0000000000653400082DE9F04791461F4694
:10370C008A680B6906469342B8BF1346C9F8003065
:10371C0091F843200C46DDF8208012B10133C9F832
:10372C0000302368990642BFD9F800300233C9F83B
:10373C000030256815F0060507D104F1190AE36875
:10374C00D9F800209B1A9D422ADB94F8433022685A
:10375C00003318BF012392062FD404F143023946DB
:10376C003046C047013022D02368E56803F00603D9
:10377C00042B18BF0025D9F800204FF0000908BF12
:10378C00AD1AA368226908BF25EAE5759342C4BF48
:10379C009B1AED181A344D451BD10020BDE8F0875B
:1037AC000123524639463046C047013003D14FF011
:1037BC00FF30BDE8F0870135C1E73020E11881F812
:1037CC0043005A1C94F845102244023382F84310EB
:1037DC00C3E70123224639463046C0470130E6D0C4
:1037EC0009F10109D7E700002DE9F04317460A7EDD
:1037FC0085B06E2A984606460C460C9B01F1430E8A
:10380C0000F0BC801AD8632A2ED00AD8002A00F007
:10381C00C880582A00F08A8004F1420584F84220BE
:10382C002AE0642A01D0692AF6D121681A6811F0BD
:10383C00800F23D0111D1960136827E0732A00F044
:10384C00B48008D86F2A2AD0702AE5D10A6842F0D1
:10385C0020020A6003E0752A21D0782ADCD1782274
:10386C006F4984F8452064E01A6801F14205111D86
:10387C001960136884F842300123A3E011F0400F63
:10388C0002F104011960D7D0B2F90030002B03DA31
:10389C002D225B4284F8432062490A2217E02068FB
:1038AC00196810F0800F03D0081D18600B6806E033
:1038BC0010F0400F01F104001860F7D00B886F2A4C
:1038CC0014BF0A2208225749002084F84300656877
:1038DC00002DA560C0F29C80206820F004002060C0
:1038EC00002B3FD1002D40F095807546082A0BD156
:1038FC002368DA0708D5236962689A42DEBF302351
:10390C0005F8013C05F1FF35AEEB05032361CDF85D
:10391C0000803B4603AA21463046FFF7EDFE0130FE
:10392C0055D14FF0FF3005B0BDE8F08381F845204C
:10393C003C492268186812F0800F00F104051D60E4
:10394C0001D0036802E05506FBD50388D00744BFBD
:10395C0042F0200222601BB9226822F02002226071
:10396C001022B1E77546B3FBF2F002FB1033CB5CCF
:10397C0005F8013D03460028F5D1B7E708681A6839
:10398C0010F0800F496904D0101D1860136819607D
:10399C0007E010F0400F02F1040018601368F6D035
:1039AC001980002375462361B1E71A68111D19604F
:1039BC00156800216268284600F036F808B1401BF3
:1039CC00606063682361002384F843309FE72369B8
:1039DC002A4639463046C0470130A2D023689B079F
:1039EC0007D5002504F11909E368039A9B1A9D4237
:1039FC0005DBE068039B9842B8BF184693E70123A8
:103A0C004A4639463046C04701308AD00135EBE78B
:103A1C00002BA7D10B7804F1420584F8423065E7FE
:103A2C00E73D0008D63D000810B5C9B202449042EB
:103A3C00034601D1002010BD1C7801308C42F6D118
:103A4C00184610BD10B5431E0A44914200D110BD5A
:103A5C0011F8014B03F8014FF7E7884210B501EB61
:103A6C00020303D8421E99420CD110BD9842F9D2E0
:103A7C008118D21AD34200D110BD13F8014D01F8B0
:103A8C00014DF7E711F8014B02F8014FEBE700008D
:103A9C0038B50546002943D051F8043C0C1F002BC7
:103AAC00B8BFE41800F0D4F81E4A1368104633B9B6
:103ABC00636014602846BDE8384000F0CAB8A342E1
:103ACC000BD921686218934201BF1A685B685218BF
:103ADC00226063600460EDE713465A680AB1A242A3
:103AEC00FAD919685818A0420BD12068014458180B
:103AFC0082421960DED110685268014419605A6024
:103B0C00D8E702D90C232B60D4E7206821188A420D
:103B1C0001BF116852680918216062605C60C9E7D6
:103B2C0038BD00BF1004002070B5CD1C25F0030576
:103B3C0008350C2D38BF0C25002D064601DBA9429B
:103B4C0003D90C233360002070BD00F081F8234AA8
:103B5C001468214691B9224C23681BB9304600F0F9
:103B6C0067F820602946304600F062F8431C26D1E5
:103B7C000C233046336000F06CF8E4E70B685B1BF9
:103B8C001AD40B2B0FD90B60CC18CD50304600F04B
:103B9C0060F804F10B00231D20F00700C31A1BD0A2
:103BAC005A42E25070BD8C420BBF63684B68136085
:103BBC00636018BF0C46E9E70C464968CAE7C41CA9
:103BCC0024F00304A04205D0211A304600F030F84E
:103BDC000130CDD02560D9E770BD00BF10040020A6
:103BEC0014040020F8B5074614460E4621B91146B8
:103BFC00BDE8F840FFF798BF22B9FFF749FF25460B
:103C0C002846F8BD00F026F884420FD921463846E4
:103C1C00FFF78AFF05460028F2D031462246FFF70F
:103C2C0011FF31463846FFF733FFE9E73546E7E742
:103C3C0038B50023054C05460846236000F014F8FF
:103C4C00431C02D1236803B12B6038BD74150020CE
:103C5C007047704751F8040C0028A0F10400BCBF59
:103C6C000B58C01870470000044B0246196809B97C
:103C7C0003491960186802441A6070471804002040
:103C8C0078150020F8B500BFF8BC08BC9E467047FC
:0C3C9C00F8B500BFF8BC08BC9E4670479D
:103CA80002030405060708090A0B0C0D0E0F101075
:103CB8005468697320646576696365206469737004
:103CC8006C617973206672657175656E6379206FB2
:103CD80066207369676E616C2066726F6D20504153
:103CE800372050696E2E0D0A526573756C74206901
:103CF8007320646973706C6179656420696E20480B
:103D08007A2E0D0A53717561726520776176652088
:103D18006F7574707574733A0D0A5042372D316B94
:103D2800487A0D0A5041392D314D487A0D0A5041D3
:103D3800382D384D487A000A0D6672657175656EC2
:103D480063793D0000000000000000000102030448
:103D580006070809256400000201022E2E5C537232
:103D6800635C757362645F636F6E662E63004344C1
:103D78004320436F6E6669670043444320496E746D
:103D88006572666163650053544D6963726F656C53
:103D9800656374726F6E6963730053544D333220D8
:103DA8005669727475616C20436F6D506F72740040
:103DB80030303030303030303030314100232D3029
:103DC8002B2000686C4C006566674546470030311B
:103DD800323334353637383941424344454600306A
:103DE8003132333435363738396162636465660099
:043DF800310100088D
:043DFC000D010008AD
:103E00000100000010000000B32200087922000821
:103E10001122000800000000892100087721000815
:103E2000E121000800000000000000000000000088
:103E3000BD210008B1210008C9210008D5210008D2
:103E400009024300020100C032090400000102021D
:103E500001000524001001052401000104240202D0
:103E6000052406000107058203080010090401006B
:103E7000020A000000070501024000000705810258
:103E80004000000009024300020100C032090400A2
:103E900000010202010005240010010524010001B7
:103EA000042402020524060001070582030800100D
:103EB00009040100020A00000007050102000200D7
:103EC00007058102000200000A060002000000400F
:103ED0000100000009074300020104C03209040088
:103EE0000001020201000524001001052401000167
:103EF000042402020524060001070582030800FFCE
:103F000009040100020A0000000705010240000048
:103F1000070581024000000000A24A04E52F0008C6
:103F2000C12F0008C52F0008C92F0008D53200088E
:103F3000E1320008ED32000809330008253300089B
:103F4000413300085D330008120100020202004004
:103F50008304405700020102030100000403090426
:103F600064010020000000000000000000000000CC
:103F70000000000000000000000000000000000041
:103F80000000000000000000000000000000000031
:103F90000000000000000000000000000000000021
:103FA0000000000000000000000000000000000011
:103FB0000000000000000000000000000000000001
:043FC00000000000FD
:040000050800337943
:00000001FF
